{
  "contractName": "MyContract",
  "abi": [
    {
      "inputs": [],
      "payable": false,
      "stateMutability": "nonpayable",
      "type": "constructor"
    },
    {
      "constant": true,
      "inputs": [],
      "name": "showMyDeposit",
      "outputs": [
        {
          "internalType": "uint256",
          "name": "",
          "type": "uint256"
        }
      ],
      "payable": false,
      "stateMutability": "view",
      "type": "function"
    },
    {
      "constant": false,
      "inputs": [
        {
          "internalType": "uint256",
          "name": "newDeposit",
          "type": "uint256"
        }
      ],
      "name": "saving",
      "outputs": [],
      "payable": false,
      "stateMutability": "nonpayable",
      "type": "function"
    },
    {
      "constant": false,
      "inputs": [
        {
          "internalType": "uint256",
          "name": "newWithdraw",
          "type": "uint256"
        }
      ],
      "name": "withdraw",
      "outputs": [
        {
          "internalType": "string",
          "name": "",
          "type": "string"
        }
      ],
      "payable": false,
      "stateMutability": "nonpayable",
      "type": "function"
    }
  ],
  "bytecode": "0x608060405234801561001057600080fd5b50614e206000819055506101f1806100296000396000f3fe608060405234801561001057600080fd5b50600436106100415760003560e01c80632e1a7d4d146100465780633ea03a41146100ed578063498da9641461010b575b600080fd5b6100726004803603602081101561005c57600080fd5b8101908080359060200190929190505050610139565b6040518080602001828103825283818151815260200191508051906020019080838360005b838110156100b2578082015181840152602081019050610097565b50505050905090810190601f1680156100df5780820380516001836020036101000a031916815260200191505b509250505060405180910390f35b6100f5610176565b6040518082815260200191505060405180910390f35b6101376004803603602081101561012157600080fd5b810190808035906020019092919050505061017f565b005b6060600054821115610165576040518060600160405280602f815260200161018e602f91399050610171565b81600054036000819055505b919050565b60008054905090565b80600054016000819055505056fe7769746864726177206d75737420626520736d616c6c6572207468616e20617661696c61626c65206465706f736974a265627a7a72315820749baef4dde0d787d10685e351433c0dd62295e375fdf1cd39a392fc4b3b400164736f6c63430005100032",
  "source": "pragma solidity >=0.4.22 <0.6.0;\ncontract MyContract {\n      uint deposit;\n\n      constructor () public {\n         deposit = 20000;\n      }\n   \n      function showMyDeposit() public view returns(uint) {\n         return deposit;\n      }\n   \n      function saving(uint newDeposit) public {\n         deposit = deposit + newDeposit;\n      }\n\n   function withdraw(uint newWithdraw) public returns (string memory) {\n    \n         if( newWithdraw > deposit ){\n             return \"withdraw must be smaller than available deposit\";\n         }else{\n            deposit = deposit - newWithdraw;\n         }\n      }\n\n}\n",
  "sourcePath": "/home/pinokio/wahsidin_truffle_library/contracts/MyContract.sol",
  "compiler": {
    "name": "solc",
    "version": "0.5.16+commit.9c3226ce.Emscripten.clang"
  },
  "schemaVersion": "3.0.23",
  "updatedAt": "2020-06-21T05:44:21.260Z",
  "networkType": "ethereum",
  "devdoc": {
    "methods": {}
  },
  "userdoc": {
    "methods": {}
  }
}